{"contracts/TaskEscrow.sol":{"TaskEscrow":{"abi":[{"inputs":[{"internalType":"address","name":"_usdc","type":"address"}],"stateMutability":"nonpayable","type":"constructor"},{"inputs":[{"internalType":"address","name":"token","type":"address"}],"name":"SafeERC20FailedOperation","type":"error"},{"anonymous":false,"inputs":[{"indexed":true,"internalType":"bytes32","name":"taskId","type":"bytes32"},{"indexed":false,"internalType":"uint256","name":"disputeDeadline","type":"uint256"}],"name":"Completed","type":"event"},{"anonymous":false,"inputs":[{"indexed":true,"internalType":"bytes32","name":"taskId","type":"bytes32"},{"indexed":true,"internalType":"address","name":"buyer","type":"address"},{"indexed":true,"internalType":"address","name":"seller","type":"address"},{"indexed":false,"internalType":"uint256","name":"amount","type":"uint256"},{"indexed":false,"internalType":"uint256","name":"slaDeadline","type":"uint256"}],"name":"Deposited","type":"event"},{"anonymous":false,"inputs":[{"indexed":true,"internalType":"address","name":"oldOwner","type":"address"},{"indexed":true,"internalType":"address","name":"newOwner","type":"address"}],"name":"OwnerChanged","type":"event"},{"anonymous":false,"inputs":[{"indexed":true,"internalType":"bytes32","name":"taskId","type":"bytes32"},{"indexed":true,"internalType":"address","name":"buyer","type":"address"},{"indexed":false,"internalType":"uint256","name":"amount","type":"uint256"}],"name":"Refunded","type":"event"},{"anonymous":false,"inputs":[{"indexed":true,"internalType":"bytes32","name":"taskId","type":"bytes32"},{"indexed":true,"internalType":"address","name":"buyer","type":"address"},{"indexed":false,"internalType":"uint256","name":"amount","type":"uint256"}],"name":"Rejected","type":"event"},{"anonymous":false,"inputs":[{"indexed":true,"internalType":"bytes32","name":"taskId","type":"bytes32"},{"indexed":true,"internalType":"address","name":"seller","type":"address"},{"indexed":false,"internalType":"uint256","name":"amount","type":"uint256"}],"name":"Released","type":"event"},{"inputs":[],"name":"DEFAULT_DISPUTE_WINDOW","outputs":[{"internalType":"uint256","name":"","type":"uint256"}],"stateMutability":"view","type":"function"},{"inputs":[],"name":"MIN_AMOUNT","outputs":[{"internalType":"uint256","name":"","type":"uint256"}],"stateMutability":"view","type":"function"},{"inputs":[{"internalType":"bytes32","name":"taskId","type":"bytes32"}],"name":"complete","outputs":[],"stateMutability":"nonpayable","type":"function"},{"inputs":[{"internalType":"bytes32","name":"taskId","type":"bytes32"}],"name":"confirm","outputs":[],"stateMutability":"nonpayable","type":"function"},{"inputs":[{"internalType":"bytes32","name":"taskId","type":"bytes32"},{"internalType":"address","name":"seller","type":"address"},{"internalType":"uint256","name":"amount","type":"uint256"},{"internalType":"uint256","name":"slaDeadline","type":"uint256"}],"name":"deposit","outputs":[],"stateMutability":"nonpayable","type":"function"},{"inputs":[{"internalType":"bytes32","name":"taskId","type":"bytes32"},{"internalType":"address","name":"seller","type":"address"},{"internalType":"uint256","name":"amount","type":"uint256"},{"internalType":"uint256","name":"slaDeadline","type":"uint256"},{"internalType":"uint256","name":"disputeWindow","type":"uint256"}],"name":"depositWithWindow","outputs":[],"stateMutability":"nonpayable","type":"function"},{"inputs":[{"internalType":"bytes32","name":"taskId","type":"bytes32"}],"name":"getTask","outputs":[{"internalType":"address","name":"buyer","type":"address"},{"internalType":"address","name":"seller","type":"address"},{"internalType":"uint256","name":"amount","type":"uint256"},{"internalType":"uint256","name":"slaDeadline","type":"uint256"},{"internalType":"uint256","name":"disputeDeadline","type":"uint256"},{"internalType":"uint256","name":"disputeWindow","type":"uint256"},{"internalType":"enum TaskEscrow.Status","name":"status","type":"uint8"}],"stateMutability":"view","type":"function"},{"inputs":[],"name":"owner","outputs":[{"internalType":"address","name":"","type":"address"}],"stateMutability":"view","type":"function"},{"inputs":[{"internalType":"bytes32","name":"taskId","type":"bytes32"}],"name":"refund","outputs":[],"stateMutability":"nonpayable","type":"function"},{"inputs":[{"internalType":"bytes32","name":"taskId","type":"bytes32"}],"name":"reject","outputs":[],"stateMutability":"nonpayable","type":"function"},{"inputs":[{"internalType":"bytes32","name":"taskId","type":"bytes32"}],"name":"releaseAfterDispute","outputs":[],"stateMutability":"nonpayable","type":"function"},{"inputs":[{"internalType":"bytes32","name":"","type":"bytes32"}],"name":"tasks","outputs":[{"internalType":"address","name":"buyer","type":"address"},{"internalType":"address","name":"seller","type":"address"},{"internalType":"uint256","name":"amount","type":"uint256"},{"internalType":"uint256","name":"slaDeadline","type":"uint256"},{"internalType":"uint256","name":"disputeDeadline","type":"uint256"},{"internalType":"uint256","name":"disputeWindow","type":"uint256"},{"internalType":"enum TaskEscrow.Status","name":"status","type":"uint8"}],"stateMutability":"view","type":"function"},{"inputs":[{"internalType":"address","name":"newOwner","type":"address"}],"name":"transferOwnership","outputs":[],"stateMutability":"nonpayable","type":"function"},{"inputs":[],"name":"usdc","outputs":[{"internalType":"contract IERC20","name":"","type":"address"}],"stateMutability":"view","type":"function"}],"evm":{"bytecode":{"linkReferences":{},"object":"60a060405234801561001057600080fd5b5060405161125838038061125883398101604081905261002f916100a0565b6001600160a01b03811661007d5760405162461bcd60e51b81526020600482015260116024820152705a65726f2055534443206164647265737360781b604482015260640160405180910390fd5b6001600160a01b0316608052600080546001600160a01b031916331790556100d0565b6000602082840312156100b257600080fd5b81516001600160a01b03811681146100c957600080fd5b9392505050565b608051611151610107600039600081816101380152818161064f015281816107fa0152818161091d0152610ca401526111516000f3fe608060405234801561001057600080fd5b50600436106100ea5760003560e01c806383ccfb841161008c578063cabd734f11610066578063cabd734f146101fc578063ddbcb5fa1461020f578063e579f50014610218578063f2fde38b1461027357600080fd5b806383ccfb84146101be5780638da5cb5b146101d157806399890895146101e457600080fd5b806352b28d4b116100c857806352b28d4b146101725780637249fbb614610185578063797af62714610198578063812c3586146101ab57600080fd5b806315a29035146100ef57806337c871001461011e5780633e413bee14610133575b600080fd5b6101026100fd366004610f4a565b610286565b6040516101159796959493929190610f79565b60405180910390f35b61013161012c366004610ff9565b61035f565b005b61015a7f000000000000000000000000000000000000000000000000000000000000000081565b6040516001600160a01b039091168152602001610115565b61013161018036600461103f565b6106c6565b610131610193366004610f4a565b6106dc565b6101316101a6366004610f4a565b61087a565b6101316101b9366004610f4a565b610998565b6101316101cc366004610f4a565b610a31565b60005461015a906001600160a01b031681565b6101ee6201518081565b604051908152602001610115565b61013161020a366004610f4a565b610bb8565b6101ee61271081565b610102610226366004610f4a565b600160208190526000918252604090912080549181015460028201546003830154600484015460058501546006909501546001600160a01b03968716969094169492939192909160ff1687565b61013161028136600461107a565b610d1c565b6000818152600160208181526040808420815160e08101835281546001600160a01b0390811682529482015490941692840192909252600282015490830152600381015460608301526004810154608083015260058082015460a0840152600682015484938493849384938493849384939192909160c084019160ff169081111561031357610313610f63565b600581111561032457610324610f63565b9052508051602082015160408301516060840151608085015160a086015160c090960151949f939e50919c509a509850919650945092505050565b6127108310156103b65760405162461bcd60e51b815260206004820152601760248201527f42656c6f77206d696e696d756d20302e3031205553444300000000000000000060448201526064015b60405180910390fd5b4282116104105760405162461bcd60e51b815260206004820152602260248201527f534c4120646561646c696e65206d75737420626520696e207468652066757475604482015261726560f01b60648201526084016103ad565b6001600160a01b03841661045c5760405162461bcd60e51b81526020600482015260136024820152725a65726f2073656c6c6572206164647265737360681b60448201526064016103ad565b336001600160a01b038516036104ad5760405162461bcd60e51b8152602060048201526016602482015275213abcb2b91031b0b73737ba1031329039b2b63632b960511b60448201526064016103ad565b600081116104fd5760405162461bcd60e51b815260206004820152601a60248201527f446973707574652077696e646f77206d757374206265203e203000000000000060448201526064016103ad565b60008581526001602052604081206006015460ff16600581111561052357610523610f63565b146105675760405162461bcd60e51b815260206004820152601460248201527315185cdac8125108185b1c9958591e481d5cd95960621b60448201526064016103ad565b6040805160e0810182523381526001600160a01b0386166020820152908101849052606081018390526000608082015260a0810182905260c0810160019052600086815260016020818152604092839020845181546001600160a01b03199081166001600160a01b03928316178355928601518285018054909416911617909155918301516002830155606083015160038301556080830151600483015560a083015160058084019190915560c08401516006840180549193909260ff1990921691849081111561063a5761063a610f63565b02179055506106779150506001600160a01b037f000000000000000000000000000000000000000000000000000000000000000016333086610e02565b60408051848152602081018490526001600160a01b03861691339188917fe3ad398758b9cbdf4196c5d060a1aebae967b4f9115c7394e937cbb46f449587910160405180910390a45050505050565b6106d6848484846201518061035f565b50505050565b600081815260016020819052604090912090600682015460ff16600581111561070757610707610f63565b1461074d5760405162461bcd60e51b81526020600482015260166024820152754e6f7420696e206465706f736974656420737461746560501b60448201526064016103ad565b806003015442116107a05760405162461bcd60e51b815260206004820152601760248201527f534c4120646561646c696e65206e6f742070617373656400000000000000000060448201526064016103ad565b80546001600160a01b03163314806107c257506000546001600160a01b031633145b6107de5760405162461bcd60e51b81526004016103ad9061109c565b60068101805460ff191660041790558054600282015461082d917f00000000000000000000000000000000000000000000000000000000000000006001600160a01b0390811692911690610e38565b805460028201546040519081526001600160a01b039091169083907ff552ca82e113ac3c539c3d617f29fcd19c172a0c75dad017555c9e109f7fe183906020015b60405180910390a35050565b60008181526001602052604090206002600682015460ff1660058111156108a3576108a3610f63565b146108c05760405162461bcd60e51b81526004016103ad906110c8565b80546001600160a01b03163314806108e257506000546001600160a01b031633145b6108fe5760405162461bcd60e51b81526004016103ad9061109c565b60068101805460ff1916600317905560018101546002820154610950917f00000000000000000000000000000000000000000000000000000000000000006001600160a01b0390811692911690610e38565b600181015460028201546040519081526001600160a01b039091169083907fc8fa66dff4b9073528c3f1bf21a8dc9a18fdf09847e88e96188bc953aef519f09060200161086e565b60008181526001602052604090206002600682015460ff1660058111156109c1576109c1610f63565b146109de5760405162461bcd60e51b81526004016103ad906110c8565b806004015442116108fe5760405162461bcd60e51b815260206004820152601960248201527f446973707574652077696e646f77207374696c6c206f70656e0000000000000060448201526064016103ad565b600081815260016020819052604090912090600682015460ff166005811115610a5c57610a5c610f63565b14610aa95760405162461bcd60e51b815260206004820152601b60248201527f5461736b206e6f7420696e206465706f7369746564207374617465000000000060448201526064016103ad565b60018101546001600160a01b0316331480610ace57506000546001600160a01b031633145b610b105760405162461bcd60e51b81526020600482015260136024820152722737ba1039b2b63632b91037b91037bbb732b960691b60448201526064016103ad565b8060030154421115610b5a5760405162461bcd60e51b815260206004820152601360248201527214d31048191958591b1a5b99481c185cdcd959606a1b60448201526064016103ad565b60068101805460ff191660021790556005810154610b7890426110f4565b6004820181905560405190815282907f634cfec248f825718064d5e1b53bdb5adac343bc794418e90e8c5b4f6142926c9060200160405180910390a25050565b60008181526001602052604090206002600682015460ff166005811115610be157610be1610f63565b14610bfe5760405162461bcd60e51b81526004016103ad906110c8565b80546001600160a01b0316331480610c2057506000546001600160a01b031633145b610c3c5760405162461bcd60e51b81526004016103ad9061109c565b8060040154421115610c885760405162461bcd60e51b8152602060048201526015602482015274111a5cdc1d5d19481dda5b991bddc818db1bdcd959605a1b60448201526064016103ad565b60068101805460ff1916600517905580546002820154610cd7917f00000000000000000000000000000000000000000000000000000000000000006001600160a01b0390811692911690610e38565b805460028201546040519081526001600160a01b039091169083907f9f7ca45cf13c4d9a065fbc3694e1a6996c6908b8c339c9a8ecc421c621459d929060200161086e565b6000546001600160a01b03163314610d625760405162461bcd60e51b81526020600482015260096024820152682737ba1037bbb732b960b91b60448201526064016103ad565b6001600160a01b038116610da75760405162461bcd60e51b815260206004820152600c60248201526b5a65726f206164647265737360a01b60448201526064016103ad565b600080546040516001600160a01b03808516939216917fb532073b38c83145e3e5135377a08bf9aab55bc0fd7c1179cd4fb995d2a5159c91a3600080546001600160a01b0319166001600160a01b0392909216919091179055565b610e10848484846001610e72565b6106d657604051635274afe760e01b81526001600160a01b03851660048201526024016103ad565b610e458383836001610ee4565b610e6d57604051635274afe760e01b81526001600160a01b03841660048201526024016103ad565b505050565b6040516323b872dd60e01b60008181526001600160a01b038781166004528616602452604485905291602083606481808c5af192506001600051148316610ed2578383151615610ec5573d6000823e3d81fd5b6000883b113d1516831692505b60405250600060605295945050505050565b60405163a9059cbb60e01b60008181526001600160a01b038616600452602485905291602083604481808b5af192506001600051148316610f3e578383151615610f31573d6000823e3d81fd5b6000873b113d1516831692505b60405250949350505050565b600060208284031215610f5c57600080fd5b5035919050565b634e487b7160e01b600052602160045260246000fd5b6001600160a01b0388811682528716602082015260408101869052606081018590526080810184905260a0810183905260e0810160068310610fcb57634e487b7160e01b600052602160045260246000fd5b8260c083015298975050505050505050565b80356001600160a01b0381168114610ff457600080fd5b919050565b600080600080600060a0868803121561101157600080fd5b8535945061102160208701610fdd565b94979496505050506040830135926060810135926080909101359150565b6000806000806080858703121561105557600080fd5b8435935061106560208601610fdd565b93969395505050506040820135916060013590565b60006020828403121561108c57600080fd5b61109582610fdd565b9392505050565b6020808252601290820152712737ba10313abcb2b91037b91037bbb732b960711b604082015260600190565b60208082526012908201527115185cdac81b9bdd0818dbdb5c1b195d195960721b604082015260600190565b8082018082111561111557634e487b7160e01b600052601160045260246000fd5b9291505056fea264697066735822122048900b38573db2946ee151e710052fb1e11f99de50c18002493a1525e426add664736f6c63430008180033","opcodes":"PUSH1 0xA0 PUSH1 0x40 MSTORE CALLVALUE DUP1 ISZERO PUSH2 0x10 JUMPI PUSH1 0x0 DUP1 REVERT JUMPDEST POP PUSH1 0x40 MLOAD PUSH2 0x1258 CODESIZE SUB DUP1 PUSH2 0x1258 DUP4 CODECOPY DUP2 ADD PUSH1 0x40 DUP2 SWAP1 MSTORE PUSH2 0x2F SWAP2 PUSH2 0xA0 JUMP JUMPDEST PUSH1 0x1 PUSH1 0x1 PUSH1 0xA0 SHL SUB DUP2 AND PUSH2 0x7D JUMPI PUSH1 0x40 MLOAD PUSH3 0x461BCD PUSH1 0xE5 SHL DUP2 MSTORE PUSH1 0x20 PUSH1 0x4 DUP3 ADD MSTORE PUSH1 0x11 PUSH1 0x24 DUP3 ADD MSTORE PUSH17 0x5A65726F20555344432061646472657373 PUSH1 0x78 SHL PUSH1 0x44 DUP3 ADD MSTORE PUSH1 0x64 ADD PUSH1 0x40 MLOAD DUP1 SWAP2 SUB SWAP1 REVERT JUMPDEST PUSH1 0x1 PUSH1 0x1 PUSH1 0xA0 SHL SUB AND PUSH1 0x80 MSTORE PUSH1 0x0 DUP1 SLOAD PUSH1 0x1 PUSH1 0x1 PUSH1 0xA0 SHL SUB NOT AND CALLER OR SWAP1 SSTORE PUSH2 0xD0 JUMP JUMPDEST PUSH1 0x0 PUSH1 0x20 DUP3 DUP5 SUB SLT ISZERO PUSH2 0xB2 JUMPI PUSH1 0x0 DUP1 REVERT JUMPDEST DUP2 MLOAD PUSH1 0x1 PUSH1 0x1 PUSH1 0xA0 SHL SUB DUP2 AND DUP2 EQ PUSH2 0xC9 JUMPI PUSH1 0x0 DUP1 REVERT JUMPDEST SWAP4 SWAP3 POP POP POP JUMP JUMPDEST PUSH1 0x80 MLOAD PUSH2 0x1151 PUSH2 0x107 PUSH1 0x0 CODECOPY PUSH1 0x0 DUP2 DUP2 PUSH2 0x138 ADD MSTORE DUP2 DUP2 PUSH2 0x64F ADD MSTORE DUP2 DUP2 PUSH2 0x7FA ADD MSTORE DUP2 DUP2 PUSH2 0x91D ADD MSTORE PUSH2 0xCA4 ADD MSTORE PUSH2 0x1151 PUSH1 0x0 RETURN INVALID PUSH1 0x80 PUSH1 0x40 MSTORE CALLVALUE DUP1 ISZERO PUSH2 0x10 JUMPI PUSH1 0x0 DUP1 REVERT JUMPDEST POP PUSH1 0x4 CALLDATASIZE LT PUSH2 0xEA JUMPI PUSH1 0x0 CALLDATALOAD PUSH1 0xE0 SHR DUP1 PUSH4 0x83CCFB84 GT PUSH2 0x8C JUMPI DUP1 PUSH4 0xCABD734F GT PUSH2 0x66 JUMPI DUP1 PUSH4 0xCABD734F EQ PUSH2 0x1FC JUMPI DUP1 PUSH4 0xDDBCB5FA EQ PUSH2 0x20F JUMPI DUP1 PUSH4 0xE579F500 EQ PUSH2 0x218 JUMPI DUP1 PUSH4 0xF2FDE38B EQ PUSH2 0x273 JUMPI PUSH1 0x0 DUP1 REVERT JUMPDEST DUP1 PUSH4 0x83CCFB84 EQ PUSH2 0x1BE JUMPI DUP1 PUSH4 0x8DA5CB5B EQ PUSH2 0x1D1 JUMPI DUP1 PUSH4 0x99890895 EQ PUSH2 0x1E4 JUMPI PUSH1 0x0 DUP1 REVERT JUMPDEST DUP1 PUSH4 0x52B28D4B GT PUSH2 0xC8 JUMPI DUP1 PUSH4 0x52B28D4B EQ PUSH2 0x172 JUMPI DUP1 PUSH4 0x7249FBB6 EQ PUSH2 0x185 JUMPI DUP1 PUSH4 0x797AF627 EQ PUSH2 0x198 JUMPI DUP1 PUSH4 0x812C3586 EQ PUSH2 0x1AB JUMPI PUSH1 0x0 DUP1 REVERT JUMPDEST DUP1 PUSH4 0x15A29035 EQ PUSH2 0xEF JUMPI DUP1 PUSH4 0x37C87100 EQ PUSH2 0x11E JUMPI DUP1 PUSH4 0x3E413BEE EQ PUSH2 0x133 JUMPI JUMPDEST PUSH1 0x0 DUP1 REVERT JUMPDEST PUSH2 0x102 PUSH2 0xFD CALLDATASIZE PUSH1 0x4 PUSH2 0xF4A JUMP JUMPDEST PUSH2 0x286 JUMP JUMPDEST PUSH1 0x40 MLOAD PUSH2 0x115 SWAP8 SWAP7 SWAP6 SWAP5 SWAP4 SWAP3 SWAP2 SWAP1 PUSH2 0xF79 JUMP JUMPDEST PUSH1 0x40 MLOAD DUP1 SWAP2 SUB SWAP1 RETURN JUMPDEST PUSH2 0x131 PUSH2 0x12C CALLDATASIZE PUSH1 0x4 PUSH2 0xFF9 JUMP JUMPDEST PUSH2 0x35F JUMP JUMPDEST STOP JUMPDEST PUSH2 0x15A PUSH32 0x0 DUP2 JUMP JUMPDEST PUSH1 0x40 MLOAD PUSH1 0x1 PUSH1 0x1 PUSH1 0xA0 SHL SUB SWAP1 SWAP2 AND DUP2 MSTORE PUSH1 0x20 ADD PUSH2 0x115 JUMP JUMPDEST PUSH2 0x131 PUSH2 0x180 CALLDATASIZE PUSH1 0x4 PUSH2 0x103F JUMP JUMPDEST PUSH2 0x6C6 JUMP JUMPDEST PUSH2 0x131 PUSH2 0x193 CALLDATASIZE PUSH1 0x4 PUSH2 0xF4A JUMP JUMPDEST PUSH2 0x6DC JUMP JUMPDEST PUSH2 0x131 PUSH2 0x1A6 CALLDATASIZE PUSH1 0x4 PUSH2 0xF4A JUMP JUMPDEST PUSH2 0x87A JUMP JUMPDEST PUSH2 0x131 PUSH2 0x1B9 CALLDATASIZE PUSH1 0x4 PUSH2 0xF4A JUMP JUMPDEST PUSH2 0x998 JUMP JUMPDEST PUSH2 0x131 PUSH2 0x1CC CALLDATASIZE PUSH1 0x4 PUSH2 0xF4A JUMP JUMPDEST PUSH2 0xA31 JUMP JUMPDEST PUSH1 0x0 SLOAD PUSH2 0x15A SWAP1 PUSH1 0x1 PUSH1 0x1 PUSH1 0xA0 SHL SUB AND DUP2 JUMP JUMPDEST PUSH2 0x1EE PUSH3 0x15180 DUP2 JUMP JUMPDEST PUSH1 0x40 MLOAD SWAP1 DUP2 MSTORE PUSH1 0x20 ADD PUSH2 0x115 JUMP JUMPDEST PUSH2 0x131 PUSH2 0x20A CALLDATASIZE PUSH1 0x4 PUSH2 0xF4A JUMP JUMPDEST PUSH2 0xBB8 JUMP JUMPDEST PUSH2 0x1EE PUSH2 0x2710 DUP2 JUMP JUMPDEST PUSH2 0x102 PUSH2 0x226 CALLDATASIZE PUSH1 0x4 PUSH2 0xF4A JUMP JUMPDEST PUSH1 0x1 PUSH1 0x20 DUP2 SWAP1 MSTORE PUSH1 0x0 SWAP2 DUP3 MSTORE PUSH1 0x40 SWAP1 SWAP2 KECCAK256 DUP1 SLOAD SWAP2 DUP2 ADD SLOAD PUSH1 0x2 DUP3 ADD SLOAD PUSH1 0x3 DUP4 ADD SLOAD PUSH1 0x4 DUP5 ADD SLOAD PUSH1 0x5 DUP6 ADD SLOAD PUSH1 0x6 SWAP1 SWAP6 ADD SLOAD PUSH1 0x1 PUSH1 0x1 PUSH1 0xA0 SHL SUB SWAP7 DUP8 AND SWAP7 SWAP1 SWAP5 AND SWAP5 SWAP3 SWAP4 SWAP2 SWAP3 SWAP1 SWAP2 PUSH1 0xFF AND DUP8 JUMP JUMPDEST PUSH2 0x131 PUSH2 0x281 CALLDATASIZE PUSH1 0x4 PUSH2 0x107A JUMP JUMPDEST PUSH2 0xD1C JUMP JUMPDEST PUSH1 0x0 DUP2 DUP2 MSTORE PUSH1 0x1 PUSH1 0x20 DUP2 DUP2 MSTORE PUSH1 0x40 DUP1 DUP5 KECCAK256 DUP2 MLOAD PUSH1 0xE0 DUP2 ADD DUP4 MSTORE DUP2 SLOAD PUSH1 0x1 PUSH1 0x1 PUSH1 0xA0 SHL SUB SWAP1 DUP2 AND DUP3 MSTORE SWAP5 DUP3 ADD SLOAD SWAP1 SWAP5 AND SWAP3 DUP5 ADD SWAP3 SWAP1 SWAP3 MSTORE PUSH1 0x2 DUP3 ADD SLOAD SWAP1 DUP4 ADD MSTORE PUSH1 0x3 DUP2 ADD SLOAD PUSH1 0x60 DUP4 ADD MSTORE PUSH1 0x4 DUP2 ADD SLOAD PUSH1 0x80 DUP4 ADD MSTORE PUSH1 0x5 DUP1 DUP3 ADD SLOAD PUSH1 0xA0 DUP5 ADD MSTORE PUSH1 0x6 DUP3 ADD SLOAD DUP5 SWAP4 DUP5 SWAP4 DUP5 SWAP4 DUP5 SWAP4 DUP5 SWAP4 DUP5 SWAP4 DUP5 SWAP4 SWAP2 SWAP3 SWAP1 SWAP2 PUSH1 0xC0 DUP5 ADD SWAP2 PUSH1 0xFF AND SWAP1 DUP2 GT ISZERO PUSH2 0x313 JUMPI PUSH2 0x313 PUSH2 0xF63 JUMP JUMPDEST PUSH1 0x5 DUP2 GT ISZERO PUSH2 0x324 JUMPI PUSH2 0x324 PUSH2 0xF63 JUMP JUMPDEST SWAP1 MSTORE POP DUP1 MLOAD PUSH1 0x20 DUP3 ADD MLOAD PUSH1 0x40 DUP4 ADD MLOAD PUSH1 0x60 DUP5 ADD MLOAD PUSH1 0x80 DUP6 ADD MLOAD PUSH1 0xA0 DUP7 ADD MLOAD PUSH1 0xC0 SWAP1 SWAP7 ADD MLOAD SWAP5 SWAP16 SWAP4 SWAP15 POP SWAP2 SWAP13 POP SWAP11 POP SWAP9 POP SWAP2 SWAP7 POP SWAP5 POP SWAP3 POP POP POP JUMP JUMPDEST PUSH2 0x2710 DUP4 LT ISZERO PUSH2 0x3B6 JUMPI PUSH1 0x40 MLOAD PUSH3 0x461BCD PUSH1 0xE5 SHL DUP2 MSTORE PUSH1 0x20 PUSH1 0x4 DUP3 ADD MSTORE PUSH1 0x17 PUSH1 0x24 DUP3 ADD MSTORE PUSH32 0x42656C6F77206D696E696D756D20302E30312055534443000000000000000000 PUSH1 0x44 DUP3 ADD MSTORE PUSH1 0x64 ADD JUMPDEST PUSH1 0x40 MLOAD DUP1 SWAP2 SUB SWAP1 REVERT JUMPDEST TIMESTAMP DUP3 GT PUSH2 0x410 JUMPI PUSH1 0x40 MLOAD PUSH3 0x461BCD PUSH1 0xE5 SHL DUP2 MSTORE PUSH1 0x20 PUSH1 0x4 DUP3 ADD MSTORE PUSH1 0x22 PUSH1 0x24 DUP3 ADD MSTORE PUSH32 0x534C4120646561646C696E65206D75737420626520696E207468652066757475 PUSH1 0x44 DUP3 ADD MSTORE PUSH2 0x7265 PUSH1 0xF0 SHL PUSH1 0x64 DUP3 ADD MSTORE PUSH1 0x84 ADD PUSH2 0x3AD JUMP JUMPDEST PUSH1 0x1 PUSH1 0x1 PUSH1 0xA0 SHL SUB DUP5 AND PUSH2 0x45C JUMPI PUSH1 0x40 MLOAD PUSH3 0x461BCD PUSH1 0xE5 SHL DUP2 MSTORE PUSH1 0x20 PUSH1 0x4 DUP3 ADD MSTORE PUSH1 0x13 PUSH1 0x24 DUP3 ADD MSTORE PUSH19 0x5A65726F2073656C6C65722061646472657373 PUSH1 0x68 SHL PUSH1 0x44 DUP3 ADD MSTORE PUSH1 0x64 ADD PUSH2 0x3AD JUMP JUMPDEST CALLER PUSH1 0x1 PUSH1 0x1 PUSH1 0xA0 SHL SUB DUP6 AND SUB PUSH2 0x4AD JUMPI PUSH1 0x40 MLOAD PUSH3 0x461BCD PUSH1 0xE5 SHL DUP2 MSTORE PUSH1 0x20 PUSH1 0x4 DUP3 ADD MSTORE PUSH1 0x16 PUSH1 0x24 DUP3 ADD MSTORE PUSH22 0x213ABCB2B91031B0B73737BA1031329039B2B63632B9 PUSH1 0x51 SHL PUSH1 0x44 DUP3 ADD MSTORE PUSH1 0x64 ADD PUSH2 0x3AD JUMP JUMPDEST PUSH1 0x0 DUP2 GT PUSH2 0x4FD JUMPI PUSH1 0x40 MLOAD PUSH3 0x461BCD PUSH1 0xE5 SHL DUP2 MSTORE PUSH1 0x20 PUSH1 0x4 DUP3 ADD MSTORE PUSH1 0x1A PUSH1 0x24 DUP3 ADD MSTORE PUSH32 0x446973707574652077696E646F77206D757374206265203E2030000000000000 PUSH1 0x44 DUP3 ADD MSTORE PUSH1 0x64 ADD PUSH2 0x3AD JUMP JUMPDEST PUSH1 0x0 DUP6 DUP2 MSTORE PUSH1 0x1 PUSH1 0x20 MSTORE PUSH1 0x40 DUP2 KECCAK256 PUSH1 0x6 ADD SLOAD PUSH1 0xFF AND PUSH1 0x5 DUP2 GT ISZERO PUSH2 0x523 JUMPI PUSH2 0x523 PUSH2 0xF63 JUMP JUMPDEST EQ PUSH2 0x567 JUMPI PUSH1 0x40 MLOAD PUSH3 0x461BCD PUSH1 0xE5 SHL DUP2 MSTORE PUSH1 0x20 PUSH1 0x4 DUP3 ADD MSTORE PUSH1 0x14 PUSH1 0x24 DUP3 ADD MSTORE PUSH20 0x15185CDAC8125108185B1C9958591E481D5CD959 PUSH1 0x62 SHL PUSH1 0x44 DUP3 ADD MSTORE PUSH1 0x64 ADD PUSH2 0x3AD JUMP JUMPDEST PUSH1 0x40 DUP1 MLOAD PUSH1 0xE0 DUP2 ADD DUP3 MSTORE CALLER DUP2 MSTORE PUSH1 0x1 PUSH1 0x1 PUSH1 0xA0 SHL SUB DUP7 AND PUSH1 0x20 DUP3 ADD MSTORE SWAP1 DUP2 ADD DUP5 SWAP1 MSTORE PUSH1 0x60 DUP2 ADD DUP4 SWAP1 MSTORE PUSH1 0x0 PUSH1 0x80 DUP3 ADD MSTORE PUSH1 0xA0 DUP2 ADD DUP3 SWAP1 MSTORE PUSH1 0xC0 DUP2 ADD PUSH1 0x1 SWAP1 MSTORE PUSH1 0x0 DUP7 DUP2 MSTORE PUSH1 0x1 PUSH1 0x20 DUP2 DUP2 MSTORE PUSH1 0x40 SWAP3 DUP4 SWAP1 KECCAK256 DUP5 MLOAD DUP2 SLOAD PUSH1 0x1 PUSH1 0x1 PUSH1 0xA0 SHL SUB NOT SWAP1 DUP2 AND PUSH1 0x1 PUSH1 0x1 PUSH1 0xA0 SHL SUB SWAP3 DUP4 AND OR DUP4 SSTORE SWAP3 DUP7 ADD MLOAD DUP3 DUP6 ADD DUP1 SLOAD SWAP1 SWAP5 AND SWAP2 AND OR SWAP1 SWAP2 SSTORE SWAP2 DUP4 ADD MLOAD PUSH1 0x2 DUP4 ADD SSTORE PUSH1 0x60 DUP4 ADD MLOAD PUSH1 0x3 DUP4 ADD SSTORE PUSH1 0x80 DUP4 ADD MLOAD PUSH1 0x4 DUP4 ADD SSTORE PUSH1 0xA0 DUP4 ADD MLOAD PUSH1 0x5 DUP1 DUP5 ADD SWAP2 SWAP1 SWAP2 SSTORE PUSH1 0xC0 DUP5 ADD MLOAD PUSH1 0x6 DUP5 ADD DUP1 SLOAD SWAP2 SWAP4 SWAP1 SWAP3 PUSH1 0xFF NOT SWAP1 SWAP3 AND SWAP2 DUP5 SWAP1 DUP2 GT ISZERO PUSH2 0x63A JUMPI PUSH2 0x63A PUSH2 0xF63 JUMP JUMPDEST MUL OR SWAP1 SSTORE POP PUSH2 0x677 SWAP2 POP POP PUSH1 0x1 PUSH1 0x1 PUSH1 0xA0 SHL SUB PUSH32 0x0 AND CALLER ADDRESS DUP7 PUSH2 0xE02 JUMP JUMPDEST PUSH1 0x40 DUP1 MLOAD DUP5 DUP2 MSTORE PUSH1 0x20 DUP2 ADD DUP5 SWAP1 MSTORE PUSH1 0x1 PUSH1 0x1 PUSH1 0xA0 SHL SUB DUP7 AND SWAP2 CALLER SWAP2 DUP9 SWAP2 PUSH32 0xE3AD398758B9CBDF4196C5D060A1AEBAE967B4F9115C7394E937CBB46F449587 SWAP2 ADD PUSH1 0x40 MLOAD DUP1 SWAP2 SUB SWAP1 LOG4 POP POP POP POP POP JUMP JUMPDEST PUSH2 0x6D6 DUP5 DUP5 DUP5 DUP5 PUSH3 0x15180 PUSH2 0x35F JUMP JUMPDEST POP POP POP POP JUMP JUMPDEST PUSH1 0x0 DUP2 DUP2 MSTORE PUSH1 0x1 PUSH1 0x20 DUP2 SWAP1 MSTORE PUSH1 0x40 SWAP1 SWAP2 KECCAK256 SWAP1 PUSH1 0x6 DUP3 ADD SLOAD PUSH1 0xFF AND PUSH1 0x5 DUP2 GT ISZERO PUSH2 0x707 JUMPI PUSH2 0x707 PUSH2 0xF63 JUMP JUMPDEST EQ PUSH2 0x74D JUMPI PUSH1 0x40 MLOAD PUSH3 0x461BCD PUSH1 0xE5 SHL DUP2 MSTORE PUSH1 0x20 PUSH1 0x4 DUP3 ADD MSTORE PUSH1 0x16 PUSH1 0x24 DUP3 ADD MSTORE PUSH22 0x4E6F7420696E206465706F7369746564207374617465 PUSH1 0x50 SHL PUSH1 0x44 DUP3 ADD MSTORE PUSH1 0x64 ADD PUSH2 0x3AD JUMP JUMPDEST DUP1 PUSH1 0x3 ADD SLOAD TIMESTAMP GT PUSH2 0x7A0 JUMPI PUSH1 0x40 MLOAD PUSH3 0x461BCD PUSH1 0xE5 SHL DUP2 MSTORE PUSH1 0x20 PUSH1 0x4 DUP3 ADD MSTORE PUSH1 0x17 PUSH1 0x24 DUP3 ADD MSTORE PUSH32 0x534C4120646561646C696E65206E6F7420706173736564000000000000000000 PUSH1 0x44 DUP3 ADD MSTORE PUSH1 0x64 ADD PUSH2 0x3AD JUMP JUMPDEST DUP1 SLOAD PUSH1 0x1 PUSH1 0x1 PUSH1 0xA0 SHL SUB AND CALLER EQ DUP1 PUSH2 0x7C2 JUMPI POP PUSH1 0x0 SLOAD PUSH1 0x1 PUSH1 0x1 PUSH1 0xA0 SHL SUB AND CALLER EQ JUMPDEST PUSH2 0x7DE JUMPI PUSH1 0x40 MLOAD PUSH3 0x461BCD PUSH1 0xE5 SHL DUP2 MSTORE PUSH1 0x4 ADD PUSH2 0x3AD SWAP1 PUSH2 0x109C JUMP JUMPDEST PUSH1 0x6 DUP2 ADD DUP1 SLOAD PUSH1 0xFF NOT AND PUSH1 0x4 OR SWAP1 SSTORE DUP1 SLOAD PUSH1 0x2 DUP3 ADD SLOAD PUSH2 0x82D SWAP2 PUSH32 0x0 PUSH1 0x1 PUSH1 0x1 PUSH1 0xA0 SHL SUB SWAP1 DUP2 AND SWAP3 SWAP2 AND SWAP1 PUSH2 0xE38 JUMP JUMPDEST DUP1 SLOAD PUSH1 0x2 DUP3 ADD SLOAD PUSH1 0x40 MLOAD SWAP1 DUP2 MSTORE PUSH1 0x1 PUSH1 0x1 PUSH1 0xA0 SHL SUB SWAP1 SWAP2 AND SWAP1 DUP4 SWAP1 PUSH32 0xF552CA82E113AC3C539C3D617F29FCD19C172A0C75DAD017555C9E109F7FE183 SWAP1 PUSH1 0x20 ADD JUMPDEST PUSH1 0x40 MLOAD DUP1 SWAP2 SUB SWAP1 LOG3 POP POP JUMP JUMPDEST PUSH1 0x0 DUP2 DUP2 MSTORE PUSH1 0x1 PUSH1 0x20 MSTORE PUSH1 0x40 SWAP1 KECCAK256 PUSH1 0x2 PUSH1 0x6 DUP3 ADD SLOAD PUSH1 0xFF AND PUSH1 0x5 DUP2 GT ISZERO PUSH2 0x8A3 JUMPI PUSH2 0x8A3 PUSH2 0xF63 JUMP JUMPDEST EQ PUSH2 0x8C0 JUMPI PUSH1 0x40 MLOAD PUSH3 0x461BCD PUSH1 0xE5 SHL DUP2 MSTORE PUSH1 0x4 ADD PUSH2 0x3AD SWAP1 PUSH2 0x10C8 JUMP JUMPDEST DUP1 SLOAD PUSH1 0x1 PUSH1 0x1 PUSH1 0xA0 SHL SUB AND CALLER EQ DUP1 PUSH2 0x8E2 JUMPI POP PUSH1 0x0 SLOAD PUSH1 0x1 PUSH1 0x1 PUSH1 0xA0 SHL SUB AND CALLER EQ JUMPDEST PUSH2 0x8FE JUMPI PUSH1 0x40 MLOAD PUSH3 0x461BCD PUSH1 0xE5 SHL DUP2 MSTORE PUSH1 0x4 ADD PUSH2 0x3AD SWAP1 PUSH2 0x109C JUMP JUMPDEST PUSH1 0x6 DUP2 ADD DUP1 SLOAD PUSH1 0xFF NOT AND PUSH1 0x3 OR SWAP1 SSTORE PUSH1 0x1 DUP2 ADD SLOAD PUSH1 0x2 DUP3 ADD SLOAD PUSH2 0x950 SWAP2 PUSH32 0x0 PUSH1 0x1 PUSH1 0x1 PUSH1 0xA0 SHL SUB SWAP1 DUP2 AND SWAP3 SWAP2 AND SWAP1 PUSH2 0xE38 JUMP JUMPDEST PUSH1 0x1 DUP2 ADD SLOAD PUSH1 0x2 DUP3 ADD SLOAD PUSH1 0x40 MLOAD SWAP1 DUP2 MSTORE PUSH1 0x1 PUSH1 0x1 PUSH1 0xA0 SHL SUB SWAP1 SWAP2 AND SWAP1 DUP4 SWAP1 PUSH32 0xC8FA66DFF4B9073528C3F1BF21A8DC9A18FDF09847E88E96188BC953AEF519F0 SWAP1 PUSH1 0x20 ADD PUSH2 0x86E JUMP JUMPDEST PUSH1 0x0 DUP2 DUP2 MSTORE PUSH1 0x1 PUSH1 0x20 MSTORE PUSH1 0x40 SWAP1 KECCAK256 PUSH1 0x2 PUSH1 0x6 DUP3 ADD SLOAD PUSH1 0xFF AND PUSH1 0x5 DUP2 GT ISZERO PUSH2 0x9C1 JUMPI PUSH2 0x9C1 PUSH2 0xF63 JUMP JUMPDEST EQ PUSH2 0x9DE JUMPI PUSH1 0x40 MLOAD PUSH3 0x461BCD PUSH1 0xE5 SHL DUP2 MSTORE PUSH1 0x4 ADD PUSH2 0x3AD SWAP1 PUSH2 0x10C8 JUMP JUMPDEST DUP1 PUSH1 0x4 ADD SLOAD TIMESTAMP GT PUSH2 0x8FE JUMPI PUSH1 0x40 MLOAD PUSH3 0x461BCD PUSH1 0xE5 SHL DUP2 MSTORE PUSH1 0x20 PUSH1 0x4 DUP3 ADD MSTORE PUSH1 0x19 PUSH1 0x24 DUP3 ADD MSTORE PUSH32 0x446973707574652077696E646F77207374696C6C206F70656E00000000000000 PUSH1 0x44 DUP3 ADD MSTORE PUSH1 0x64 ADD PUSH2 0x3AD JUMP JUMPDEST PUSH1 0x0 DUP2 DUP2 MSTORE PUSH1 0x1 PUSH1 0x20 DUP2 SWAP1 MSTORE PUSH1 0x40 SWAP1 SWAP2 KECCAK256 SWAP1 PUSH1 0x6 DUP3 ADD SLOAD PUSH1 0xFF AND PUSH1 0x5 DUP2 GT ISZERO PUSH2 0xA5C JUMPI PUSH2 0xA5C PUSH2 0xF63 JUMP JUMPDEST EQ PUSH2 0xAA9 JUMPI PUSH1 0x40 MLOAD PUSH3 0x461BCD PUSH1 0xE5 SHL DUP2 MSTORE PUSH1 0x20 PUSH1 0x4 DUP3 ADD MSTORE PUSH1 0x1B PUSH1 0x24 DUP3 ADD MSTORE PUSH32 0x5461736B206E6F7420696E206465706F73697465642073746174650000000000 PUSH1 0x44 DUP3 ADD MSTORE PUSH1 0x64 ADD PUSH2 0x3AD JUMP JUMPDEST PUSH1 0x1 DUP2 ADD SLOAD PUSH1 0x1 PUSH1 0x1 PUSH1 0xA0 SHL SUB AND CALLER EQ DUP1 PUSH2 0xACE JUMPI POP PUSH1 0x0 SLOAD PUSH1 0x1 PUSH1 0x1 PUSH1 0xA0 SHL SUB AND CALLER EQ JUMPDEST PUSH2 0xB10 JUMPI PUSH1 0x40 MLOAD PUSH3 0x461BCD PUSH1 0xE5 SHL DUP2 MSTORE PUSH1 0x20 PUSH1 0x4 DUP3 ADD MSTORE PUSH1 0x13 PUSH1 0x24 DUP3 ADD MSTORE PUSH19 0x2737BA1039B2B63632B91037B91037BBB732B9 PUSH1 0x69 SHL PUSH1 0x44 DUP3 ADD MSTORE PUSH1 0x64 ADD PUSH2 0x3AD JUMP JUMPDEST DUP1 PUSH1 0x3 ADD SLOAD TIMESTAMP GT ISZERO PUSH2 0xB5A JUMPI PUSH1 0x40 MLOAD PUSH3 0x461BCD PUSH1 0xE5 SHL DUP2 MSTORE PUSH1 0x20 PUSH1 0x4 DUP3 ADD MSTORE PUSH1 0x13 PUSH1 0x24 DUP3 ADD MSTORE PUSH19 0x14D31048191958591B1A5B99481C185CDCD959 PUSH1 0x6A SHL PUSH1 0x44 DUP3 ADD MSTORE PUSH1 0x64 ADD PUSH2 0x3AD JUMP JUMPDEST PUSH1 0x6 DUP2 ADD DUP1 SLOAD PUSH1 0xFF NOT AND PUSH1 0x2 OR SWAP1 SSTORE PUSH1 0x5 DUP2 ADD SLOAD PUSH2 0xB78 SWAP1 TIMESTAMP PUSH2 0x10F4 JUMP JUMPDEST PUSH1 0x4 DUP3 ADD DUP2 SWAP1 SSTORE PUSH1 0x40 MLOAD SWAP1 DUP2 MSTORE DUP3 SWAP1 PUSH32 0x634CFEC248F825718064D5E1B53BDB5ADAC343BC794418E90E8C5B4F6142926C SWAP1 PUSH1 0x20 ADD PUSH1 0x40 MLOAD DUP1 SWAP2 SUB SWAP1 LOG2 POP POP JUMP JUMPDEST PUSH1 0x0 DUP2 DUP2 MSTORE PUSH1 0x1 PUSH1 0x20 MSTORE PUSH1 0x40 SWAP1 KECCAK256 PUSH1 0x2 PUSH1 0x6 DUP3 ADD SLOAD PUSH1 0xFF AND PUSH1 0x5 DUP2 GT ISZERO PUSH2 0xBE1 JUMPI PUSH2 0xBE1 PUSH2 0xF63 JUMP JUMPDEST EQ PUSH2 0xBFE JUMPI PUSH1 0x40 MLOAD PUSH3 0x461BCD PUSH1 0xE5 SHL DUP2 MSTORE PUSH1 0x4 ADD PUSH2 0x3AD SWAP1 PUSH2 0x10C8 JUMP JUMPDEST DUP1 SLOAD PUSH1 0x1 PUSH1 0x1 PUSH1 0xA0 SHL SUB AND CALLER EQ DUP1 PUSH2 0xC20 JUMPI POP PUSH1 0x0 SLOAD PUSH1 0x1 PUSH1 0x1 PUSH1 0xA0 SHL SUB AND CALLER EQ JUMPDEST PUSH2 0xC3C JUMPI PUSH1 0x40 MLOAD PUSH3 0x461BCD PUSH1 0xE5 SHL DUP2 MSTORE PUSH1 0x4 ADD PUSH2 0x3AD SWAP1 PUSH2 0x109C JUMP JUMPDEST DUP1 PUSH1 0x4 ADD SLOAD TIMESTAMP GT ISZERO PUSH2 0xC88 JUMPI PUSH1 0x40 MLOAD PUSH3 0x461BCD PUSH1 0xE5 SHL DUP2 MSTORE PUSH1 0x20 PUSH1 0x4 DUP3 ADD MSTORE PUSH1 0x15 PUSH1 0x24 DUP3 ADD MSTORE PUSH21 0x111A5CDC1D5D19481DDA5B991BDDC818DB1BDCD959 PUSH1 0x5A SHL PUSH1 0x44 DUP3 ADD MSTORE PUSH1 0x64 ADD PUSH2 0x3AD JUMP JUMPDEST PUSH1 0x6 DUP2 ADD DUP1 SLOAD PUSH1 0xFF NOT AND PUSH1 0x5 OR SWAP1 SSTORE DUP1 SLOAD PUSH1 0x2 DUP3 ADD SLOAD PUSH2 0xCD7 SWAP2 PUSH32 0x0 PUSH1 0x1 PUSH1 0x1 PUSH1 0xA0 SHL SUB SWAP1 DUP2 AND SWAP3 SWAP2 AND SWAP1 PUSH2 0xE38 JUMP JUMPDEST DUP1 SLOAD PUSH1 0x2 DUP3 ADD SLOAD PUSH1 0x40 MLOAD SWAP1 DUP2 MSTORE PUSH1 0x1 PUSH1 0x1 PUSH1 0xA0 SHL SUB SWAP1 SWAP2 AND SWAP1 DUP4 SWAP1 PUSH32 0x9F7CA45CF13C4D9A065FBC3694E1A6996C6908B8C339C9A8ECC421C621459D92 SWAP1 PUSH1 0x20 ADD PUSH2 0x86E JUMP JUMPDEST PUSH1 0x0 SLOAD PUSH1 0x1 PUSH1 0x1 PUSH1 0xA0 SHL SUB AND CALLER EQ PUSH2 0xD62 JUMPI PUSH1 0x40 MLOAD PUSH3 0x461BCD PUSH1 0xE5 SHL DUP2 MSTORE PUSH1 0x20 PUSH1 0x4 DUP3 ADD MSTORE PUSH1 0x9 PUSH1 0x24 DUP3 ADD MSTORE PUSH9 0x2737BA1037BBB732B9 PUSH1 0xB9 SHL PUSH1 0x44 DUP3 ADD MSTORE PUSH1 0x64 ADD PUSH2 0x3AD JUMP JUMPDEST PUSH1 0x1 PUSH1 0x1 PUSH1 0xA0 SHL SUB DUP2 AND PUSH2 0xDA7 JUMPI PUSH1 0x40 MLOAD PUSH3 0x461BCD PUSH1 0xE5 SHL DUP2 MSTORE PUSH1 0x20 PUSH1 0x4 DUP3 ADD MSTORE PUSH1 0xC PUSH1 0x24 DUP3 ADD MSTORE PUSH12 0x5A65726F2061646472657373 PUSH1 0xA0 SHL PUSH1 0x44 DUP3 ADD MSTORE PUSH1 0x64 ADD PUSH2 0x3AD JUMP JUMPDEST PUSH1 0x0 DUP1 SLOAD PUSH1 0x40 MLOAD PUSH1 0x1 PUSH1 0x1 PUSH1 0xA0 SHL SUB DUP1 DUP6 AND SWAP4 SWAP3 AND SWAP2 PUSH32 0xB532073B38C83145E3E5135377A08BF9AAB55BC0FD7C1179CD4FB995D2A5159C SWAP2 LOG3 PUSH1 0x0 DUP1 SLOAD PUSH1 0x1 PUSH1 0x1 PUSH1 0xA0 SHL SUB NOT AND PUSH1 0x1 PUSH1 0x1 PUSH1 0xA0 SHL SUB SWAP3 SWAP1 SWAP3 AND SWAP2 SWAP1 SWAP2 OR SWAP1 SSTORE JUMP JUMPDEST PUSH2 0xE10 DUP5 DUP5 DUP5 DUP5 PUSH1 0x1 PUSH2 0xE72 JUMP JUMPDEST PUSH2 0x6D6 JUMPI PUSH1 0x40 MLOAD PUSH4 0x5274AFE7 PUSH1 0xE0 SHL DUP2 MSTORE PUSH1 0x1 PUSH1 0x1 PUSH1 0xA0 SHL SUB DUP6 AND PUSH1 0x4 DUP3 ADD MSTORE PUSH1 0x24 ADD PUSH2 0x3AD JUMP JUMPDEST PUSH2 0xE45 DUP4 DUP4 DUP4 PUSH1 0x1 PUSH2 0xEE4 JUMP JUMPDEST PUSH2 0xE6D JUMPI PUSH1 0x40 MLOAD PUSH4 0x5274AFE7 PUSH1 0xE0 SHL DUP2 MSTORE PUSH1 0x1 PUSH1 0x1 PUSH1 0xA0 SHL SUB DUP5 AND PUSH1 0x4 DUP3 ADD MSTORE PUSH1 0x24 ADD PUSH2 0x3AD JUMP JUMPDEST POP POP POP JUMP JUMPDEST PUSH1 0x40 MLOAD PUSH4 0x23B872DD PUSH1 0xE0 SHL PUSH1 0x0 DUP2 DUP2 MSTORE PUSH1 0x1 PUSH1 0x1 PUSH1 0xA0 SHL SUB DUP8 DUP2 AND PUSH1 0x4 MSTORE DUP7 AND PUSH1 0x24 MSTORE PUSH1 0x44 DUP6 SWAP1 MSTORE SWAP2 PUSH1 0x20 DUP4 PUSH1 0x64 DUP2 DUP1 DUP13 GAS CALL SWAP3 POP PUSH1 0x1 PUSH1 0x0 MLOAD EQ DUP4 AND PUSH2 0xED2 JUMPI DUP4 DUP4 ISZERO AND ISZERO PUSH2 0xEC5 JUMPI RETURNDATASIZE PUSH1 0x0 DUP3 RETURNDATACOPY RETURNDATASIZE DUP2 REVERT JUMPDEST PUSH1 0x0 DUP9 EXTCODESIZE GT RETURNDATASIZE ISZERO AND DUP4 AND SWAP3 POP JUMPDEST PUSH1 0x40 MSTORE POP PUSH1 0x0 PUSH1 0x60 MSTORE SWAP6 SWAP5 POP POP POP POP POP JUMP JUMPDEST PUSH1 0x40 MLOAD PUSH4 0xA9059CBB PUSH1 0xE0 SHL PUSH1 0x0 DUP2 DUP2 MSTORE PUSH1 0x1 PUSH1 0x1 PUSH1 0xA0 SHL SUB DUP7 AND PUSH1 0x4 MSTORE PUSH1 0x24 DUP6 SWAP1 MSTORE SWAP2 PUSH1 0x20 DUP4 PUSH1 0x44 DUP2 DUP1 DUP12 GAS CALL SWAP3 POP PUSH1 0x1 PUSH1 0x0 MLOAD EQ DUP4 AND PUSH2 0xF3E JUMPI DUP4 DUP4 ISZERO AND ISZERO PUSH2 0xF31 JUMPI RETURNDATASIZE PUSH1 0x0 DUP3 RETURNDATACOPY RETURNDATASIZE DUP2 REVERT JUMPDEST PUSH1 0x0 DUP8 EXTCODESIZE GT RETURNDATASIZE ISZERO AND DUP4 AND SWAP3 POP JUMPDEST PUSH1 0x40 MSTORE POP SWAP5 SWAP4 POP POP POP POP JUMP JUMPDEST PUSH1 0x0 PUSH1 0x20 DUP3 DUP5 SUB SLT ISZERO PUSH2 0xF5C JUMPI PUSH1 0x0 DUP1 REVERT JUMPDEST POP CALLDATALOAD SWAP2 SWAP1 POP JUMP JUMPDEST PUSH4 0x4E487B71 PUSH1 0xE0 SHL PUSH1 0x0 MSTORE PUSH1 0x21 PUSH1 0x4 MSTORE PUSH1 0x24 PUSH1 0x0 REVERT JUMPDEST PUSH1 0x1 PUSH1 0x1 PUSH1 0xA0 SHL SUB DUP9 DUP2 AND DUP3 MSTORE DUP8 AND PUSH1 0x20 DUP3 ADD MSTORE PUSH1 0x40 DUP2 ADD DUP7 SWAP1 MSTORE PUSH1 0x60 DUP2 ADD DUP6 SWAP1 MSTORE PUSH1 0x80 DUP2 ADD DUP5 SWAP1 MSTORE PUSH1 0xA0 DUP2 ADD DUP4 SWAP1 MSTORE PUSH1 0xE0 DUP2 ADD PUSH1 0x6 DUP4 LT PUSH2 0xFCB JUMPI PUSH4 0x4E487B71 PUSH1 0xE0 SHL PUSH1 0x0 MSTORE PUSH1 0x21 PUSH1 0x4 MSTORE PUSH1 0x24 PUSH1 0x0 REVERT JUMPDEST DUP3 PUSH1 0xC0 DUP4 ADD MSTORE SWAP9 SWAP8 POP POP POP POP POP POP POP POP JUMP JUMPDEST DUP1 CALLDATALOAD PUSH1 0x1 PUSH1 0x1 PUSH1 0xA0 SHL SUB DUP2 AND DUP2 EQ PUSH2 0xFF4 JUMPI PUSH1 0x0 DUP1 REVERT JUMPDEST SWAP2 SWAP1 POP JUMP JUMPDEST PUSH1 0x0 DUP1 PUSH1 0x0 DUP1 PUSH1 0x0 PUSH1 0xA0 DUP7 DUP9 SUB SLT ISZERO PUSH2 0x1011 JUMPI PUSH1 0x0 DUP1 REVERT JUMPDEST DUP6 CALLDATALOAD SWAP5 POP PUSH2 0x1021 PUSH1 0x20 DUP8 ADD PUSH2 0xFDD JUMP JUMPDEST SWAP5 SWAP8 SWAP5 SWAP7 POP POP POP POP PUSH1 0x40 DUP4 ADD CALLDATALOAD SWAP3 PUSH1 0x60 DUP2 ADD CALLDATALOAD SWAP3 PUSH1 0x80 SWAP1 SWAP2 ADD CALLDATALOAD SWAP2 POP JUMP JUMPDEST PUSH1 0x0 DUP1 PUSH1 0x0 DUP1 PUSH1 0x80 DUP6 DUP8 SUB SLT ISZERO PUSH2 0x1055 JUMPI PUSH1 0x0 DUP1 REVERT JUMPDEST DUP5 CALLDATALOAD SWAP4 POP PUSH2 0x1065 PUSH1 0x20 DUP7 ADD PUSH2 0xFDD JUMP JUMPDEST SWAP4 SWAP7 SWAP4 SWAP6 POP POP POP POP PUSH1 0x40 DUP3 ADD CALLDATALOAD SWAP2 PUSH1 0x60 ADD CALLDATALOAD SWAP1 JUMP JUMPDEST PUSH1 0x0 PUSH1 0x20 DUP3 DUP5 SUB SLT ISZERO PUSH2 0x108C JUMPI PUSH1 0x0 DUP1 REVERT JUMPDEST PUSH2 0x1095 DUP3 PUSH2 0xFDD JUMP JUMPDEST SWAP4 SWAP3 POP POP POP JUMP JUMPDEST PUSH1 0x20 DUP1 DUP3 MSTORE PUSH1 0x12 SWAP1 DUP3 ADD MSTORE PUSH18 0x2737BA10313ABCB2B91037B91037BBB732B9 PUSH1 0x71 SHL PUSH1 0x40 DUP3 ADD MSTORE PUSH1 0x60 ADD SWAP1 JUMP JUMPDEST PUSH1 0x20 DUP1 DUP3 MSTORE PUSH1 0x12 SWAP1 DUP3 ADD MSTORE PUSH18 0x15185CDAC81B9BDD0818DBDB5C1B195D1959 PUSH1 0x72 SHL PUSH1 0x40 DUP3 ADD MSTORE PUSH1 0x60 ADD SWAP1 JUMP JUMPDEST DUP1 DUP3 ADD DUP1 DUP3 GT ISZERO PUSH2 0x1115 JUMPI PUSH4 0x4E487B71 PUSH1 0xE0 SHL PUSH1 0x0 MSTORE PUSH1 0x11 PUSH1 0x4 MSTORE PUSH1 0x24 PUSH1 0x0 REVERT JUMPDEST SWAP3 SWAP2 POP POP JUMP INVALID LOG2 PUSH5 0x6970667358 0x22 SLT KECCAK256 BASEFEE SWAP1 SIGNEXTEND CODESIZE JUMPI RETURNDATASIZE 0xB2 SWAP5 PUSH15 0xE151E710052FB1E11F99DE50C18002 BLOBHASH GASPRICE ISZERO 0x25 0xE4 0x26 0xAD 0xD6 PUSH5 0x736F6C6343 STOP ADDMOD XOR STOP CALLER "},"methodIdentifiers":{"DEFAULT_DISPUTE_WINDOW()":"99890895","MIN_AMOUNT()":"ddbcb5fa","complete(bytes32)":"83ccfb84","confirm(bytes32)":"797af627","deposit(bytes32,address,uint256,uint256)":"52b28d4b","depositWithWindow(bytes32,address,uint256,uint256,uint256)":"37c87100","getTask(bytes32)":"15a29035","owner()":"8da5cb5b","refund(bytes32)":"7249fbb6","reject(bytes32)":"cabd734f","releaseAfterDispute(bytes32)":"812c3586","tasks(bytes32)":"e579f500","transferOwnership(address)":"f2fde38b","usdc()":"3e413bee"}}}}}